{
  "contractName": "Crowdfunding",
  "abi": [
    {
      "anonymous": false,
      "inputs": [
        {
          "indexed": false,
          "name": "contractAddress",
          "type": "address"
        },
        {
          "indexed": false,
          "name": "projectStarter",
          "type": "address"
        },
        {
          "indexed": false,
          "name": "projectTitle",
          "type": "string"
        },
        {
          "indexed": false,
          "name": "projectDesc",
          "type": "string"
        },
        {
          "indexed": false,
          "name": "deadline",
          "type": "uint256"
        },
        {
          "indexed": false,
          "name": "goalAmount",
          "type": "uint256"
        }
      ],
      "name": "ProjectStarted",
      "type": "event"
    },
    {
      "constant": false,
      "inputs": [
        {
          "name": "title",
          "type": "string"
        },
        {
          "name": "description",
          "type": "string"
        },
        {
          "name": "durationInDays",
          "type": "uint256"
        },
        {
          "name": "amountToRaise",
          "type": "uint256"
        }
      ],
      "name": "startProject",
      "outputs": [],
      "payable": false,
      "stateMutability": "nonpayable",
      "type": "function"
    },
    {
      "constant": true,
      "inputs": [],
      "name": "returnAllProjects",
      "outputs": [
        {
          "name": "",
          "type": "address[]"
        }
      ],
      "payable": false,
      "stateMutability": "view",
      "type": "function"
    }
  ],
  "bytecode": "0x608060405234801561001057600080fd5b506119bf806100206000396000f3fe608060405234801561001057600080fd5b50600436106100365760003560e01c806385b6e28e1461003b578063a24a2d161461009a575b600080fd5b61004361017c565b6040518080602001828103825283818151815260200191508051906020019060200280838360005b8381101561008657808201518184015260208101905061006b565b505050509050019250505060405180910390f35b61017a600480360360808110156100b057600080fd5b81019080803590602001906401000000008111156100cd57600080fd5b8201836020820111156100df57600080fd5b8035906020019184600183028401116401000000008311171561010157600080fd5b90919293919293908035906020019064010000000081111561012257600080fd5b82018360208201111561013457600080fd5b8035906020019184600183028401116401000000008311171561015657600080fd5b9091929391929390803590602001909291908035906020019092919050505061020a565b005b6060600080548060200260200160405190810160405280929190818152602001828054801561020057602002820191906000526020600020905b8160009054906101000a900473ffffffffffffffffffffffffffffffffffffffff1673ffffffffffffffffffffffffffffffffffffffff16815260200190600101908083116101b6575b5050505050905090565b600061023461022562015180856104f190919063ffffffff16565b4261057790919063ffffffff16565b90506000604051610244906105ff565b604051809103906000f080158015610260573d6000803e3d6000fd5b5090508073ffffffffffffffffffffffffffffffffffffffff1663e49db9b3338a8a8a8a888a6040518863ffffffff1660e01b8152600401808873ffffffffffffffffffffffffffffffffffffffff1673ffffffffffffffffffffffffffffffffffffffff16815260200180602001806020018581526020018481526020018381038352898982818152602001925080828437600081840152601f19601f8201169050808301925050508381038252878782818152602001925080828437600081840152601f19601f8201169050808301925050509950505050505050505050600060405180830381600087803b15801561035a57600080fd5b505af115801561036e573d6000803e3d6000fd5b5050505060008190806001815401808255809150509060018203906000526020600020016000909192909190916101000a81548173ffffffffffffffffffffffffffffffffffffffff021916908373ffffffffffffffffffffffffffffffffffffffff160217905550507f6218c120ad6d836da0bfe4d4c44c8375356514fce6ae39ecdcd483fad6056e6681338a8a8a8a888a604051808973ffffffffffffffffffffffffffffffffffffffff1673ffffffffffffffffffffffffffffffffffffffff1681526020018873ffffffffffffffffffffffffffffffffffffffff1673ffffffffffffffffffffffffffffffffffffffff16815260200180602001806020018581526020018481526020018381038352898982818152602001925080828437600081840152601f19601f8201169050808301925050508381038252878782818152602001925080828437600081840152601f19601f8201169050808301925050509a505050505050505050505060405180910390a15050505050505050565b6000808314156105045760009050610571565b600082840290508284828161051557fe5b041461056c576040517f08c379a00000000000000000000000000000000000000000000000000000000081526004018080602001828103825260218152602001806119736021913960400191505060405180910390fd5b809150505b92915050565b6000808284019050838110156105f5576040517f08c379a000000000000000000000000000000000000000000000000000000000815260040180806020018281038252601b8152602001807f536166654d6174683a206164646974696f6e206f766572666c6f77000000000081525060200191505060405180910390fd5b8091505092915050565b6113668061060d8339019056fe60806040526000600760006101000a81548160ff0219169083600281111561002357fe5b021790555034801561003457600080fd5b50611322806100446000396000f3fe6080604052600436106100dd5760003560e01c806386f325861161007f578063ce845d1d11610059578063ce845d1d146103be578063d7bb99ba146103e9578063e49db9b3146103f3578063fbbf93a014610586576100dd565b806386f325861461033f578063b2d5ae4414610356578063c19d93fb14610385576100dd565b806342e94c90116100bb57806342e94c901461018f5780634a79d50c146101f45780634c4cea5a146102845780637284e416146102af576100dd565b806302d05d3f146100e25780630785001c1461013957806337f944cc14610164575b600080fd5b3480156100ee57600080fd5b506100f76106df565b604051808273ffffffffffffffffffffffffffffffffffffffff1673ffffffffffffffffffffffffffffffffffffffff16815260200191505060405180910390f35b34801561014557600080fd5b5061014e610704565b6040518082815260200191505060405180910390f35b34801561017057600080fd5b5061017961070a565b6040518082815260200191505060405180910390f35b34801561019b57600080fd5b506101de600480360360208110156101b257600080fd5b81019080803573ffffffffffffffffffffffffffffffffffffffff169060200190929190505050610710565b6040518082815260200191505060405180910390f35b34801561020057600080fd5b50610209610728565b6040518080602001828103825283818151815260200191508051906020019080838360005b8381101561024957808201518184015260208101905061022e565b50505050905090810190601f1680156102765780820380516001836020036101000a031916815260200191505b509250505060405180910390f35b34801561029057600080fd5b506102996107c6565b6040518082815260200191505060405180910390f35b3480156102bb57600080fd5b506102c46107cc565b6040518080602001828103825283818151815260200191508051906020019080838360005b838110156103045780820151818401526020810190506102e9565b50505050905090810190601f1680156103315780820380516001836020036101000a031916815260200191505b509250505060405180910390f35b34801561034b57600080fd5b5061035461086a565b005b34801561036257600080fd5b5061036b6108e0565b604051808215151515815260200191505060405180910390f35b34801561039157600080fd5b5061039a610b1e565b604051808260028111156103aa57fe5b60ff16815260200191505060405180910390f35b3480156103ca57600080fd5b506103d3610b31565b6040518082815260200191505060405180910390f35b6103f1610b37565b005b3480156103ff57600080fd5b50610584600480360360a081101561041657600080fd5b81019080803573ffffffffffffffffffffffffffffffffffffffff1690602001909291908035906020019064010000000081111561045357600080fd5b82018360208201111561046557600080fd5b8035906020019184600183028401116401000000008311171561048757600080fd5b91908080601f016020809104026020016040519081016040528093929190818152602001838380828437600081840152601f19601f820116905080830192505050505050509192919290803590602001906401000000008111156104ea57600080fd5b8201836020820111156104fc57600080fd5b8035906020019184600183028401116401000000008311171561051e57600080fd5b91908080601f016020809104026020016040519081016040528093929190818152602001838380828437600081840152601f19601f8201169050808301925050505050505091929192908035906020019092919080359060200190929190505050610d7c565b005b34801561059257600080fd5b5061059b610e07565b604051808873ffffffffffffffffffffffffffffffffffffffff1673ffffffffffffffffffffffffffffffffffffffff16815260200180602001806020018781526020018660028111156105eb57fe5b60ff168152602001858152602001848152602001838103835289818151815260200191508051906020019080838360005b8381101561063757808201518184015260208101905061061c565b50505050905090810190601f1680156106645780820380516001836020036101000a031916815260200191505b50838103825288818151815260200191508051906020019080838360005b8381101561069d578082015181840152602081019050610682565b50505050905090810190601f1680156106ca5780820380516001836020036101000a031916815260200191505b50995050505050505050505060405180910390f35b6000809054906101000a900473ffffffffffffffffffffffffffffffffffffffff1681565b60015481565b60045481565b60086020528060005260406000206000915090505481565b60058054600181600116156101000203166002900480601f0160208091040260200160405190810160405280929190818152602001828054600181600116156101000203166002900480156107be5780601f10610793576101008083540402835291602001916107be565b820191906000526020600020905b8154815290600101906020018083116107a157829003601f168201915b505050505081565b60025481565b60068054600181600116156101000203166002900480601f0160208091040260200160405190810160405280929190818152602001828054600181600116156101000203166002900480156108625780601f1061083757610100808354040283529160200191610862565b820191906000526020600020905b81548152906001019060200180831161084557829003601f168201915b505050505081565b600154600354106108a7576002600760006101000a81548160ff0219169083600281111561089457fe5b02179055506108a1610f9a565b506108d7565b6004544211156108d6576001600760006101000a81548160ff021916908360028111156108d057fe5b02179055505b5b42600281905550565b600060018060028111156108f057fe5b600760009054906101000a900460ff16600281111561090b57fe5b14610959576040517f08c379a0000000000000000000000000000000000000000000000000000000008152600401808060200182810382526000815260200160200191505060405180910390fd5b6000600860003373ffffffffffffffffffffffffffffffffffffffff1673ffffffffffffffffffffffffffffffffffffffff16815260200190815260200160002054116109e9576040517f08c379a0000000000000000000000000000000000000000000000000000000008152600401808060200182810382526000815260200160200191505060405180910390fd5b6000600860003373ffffffffffffffffffffffffffffffffffffffff1673ffffffffffffffffffffffffffffffffffffffff1681526020019081526020016000205490506000600860003373ffffffffffffffffffffffffffffffffffffffff1673ffffffffffffffffffffffffffffffffffffffff168152602001908152602001600020819055503373ffffffffffffffffffffffffffffffffffffffff166108fc829081150290604051600060405180830381858888f19350505050610af95780600860003373ffffffffffffffffffffffffffffffffffffffff1673ffffffffffffffffffffffffffffffffffffffff168152602001908152602001600020819055506000925050610b1a565b610b0e8160035461114090919063ffffffff16565b60038190555060019250505b5090565b600760009054906101000a900460ff1681565b60035481565b6000806002811115610b4557fe5b600760009054906101000a900460ff166002811115610b6057fe5b14610bae576040517f08c379a0000000000000000000000000000000000000000000000000000000008152600401808060200182810382526000815260200160200191505060405180910390fd5b6000809054906101000a900473ffffffffffffffffffffffffffffffffffffffff1673ffffffffffffffffffffffffffffffffffffffff163373ffffffffffffffffffffffffffffffffffffffff161415610c4c576040517f08c379a0000000000000000000000000000000000000000000000000000000008152600401808060200182810382526000815260200160200191505060405180910390fd5b610c9e34600860003373ffffffffffffffffffffffffffffffffffffffff1673ffffffffffffffffffffffffffffffffffffffff168152602001908152602001600020546111c990919063ffffffff16565b600860003373ffffffffffffffffffffffffffffffffffffffff1673ffffffffffffffffffffffffffffffffffffffff16815260200190815260200160002081905550610cf6346003546111c990919063ffffffff16565b6003819055507f5cdc4ab8d637538ead6cc1904d4160343656c8c82bd266635cfd31ac008fffe03334600354604051808473ffffffffffffffffffffffffffffffffffffffff1673ffffffffffffffffffffffffffffffffffffffff168152602001838152602001828152602001935050505060405180910390a1610d7961086a565b50565b846000806101000a81548173ffffffffffffffffffffffffffffffffffffffff021916908373ffffffffffffffffffffffffffffffffffffffff1602179055508360059080519060200190610dd2929190611251565b508260069080519060200190610de9929190611251565b50806001819055508160048190555060006003819055505050505050565b60006060806000806000806000809054906101000a900473ffffffffffffffffffffffffffffffffffffffff16965060058054600181600116156101000203166002900480601f016020809104026020016040519081016040528092919081815260200182805460018160011615610100020316600290048015610ecc5780601f10610ea157610100808354040283529160200191610ecc565b820191906000526020600020905b815481529060010190602001808311610eaf57829003601f168201915b5050505050955060068054600181600116156101000203166002900480601f016020809104026020016040519081016040528092919081815260200182805460018160011615610100020316600290048015610f695780601f10610f3e57610100808354040283529160200191610f69565b820191906000526020600020905b815481529060010190602001808311610f4c57829003601f168201915b505050505094506004549350600760009054906101000a900460ff1692506003549150600154905090919293949596565b60006002806002811115610faa57fe5b600760009054906101000a900460ff166002811115610fc557fe5b14611013576040517f08c379a0000000000000000000000000000000000000000000000000000000008152600401808060200182810382526000815260200160200191505060405180910390fd5b6000600354905060006003819055506000809054906101000a900473ffffffffffffffffffffffffffffffffffffffff1673ffffffffffffffffffffffffffffffffffffffff166108fc829081150290604051600060405180830381858888f193505050501561110b577f2f256415efc8561af8db667cb242964b19be7380f379ccdafaa0e54a6f6b70696000809054906101000a900473ffffffffffffffffffffffffffffffffffffffff16604051808273ffffffffffffffffffffffffffffffffffffffff1673ffffffffffffffffffffffffffffffffffffffff16815260200191505060405180910390a1600192505061113c565b806003819055506002600760006101000a81548160ff0219169083600281111561113157fe5b021790555060009250505b5090565b6000828211156111b8576040517f08c379a000000000000000000000000000000000000000000000000000000000815260040180806020018281038252601e8152602001807f536166654d6174683a207375627472616374696f6e206f766572666c6f77000081525060200191505060405180910390fd5b600082840390508091505092915050565b600080828401905083811015611247576040517f08c379a000000000000000000000000000000000000000000000000000000000815260040180806020018281038252601b8152602001807f536166654d6174683a206164646974696f6e206f766572666c6f77000000000081525060200191505060405180910390fd5b8091505092915050565b828054600181600116156101000203166002900490600052602060002090601f016020900481019282601f1061129257805160ff19168380011785556112c0565b828001600101855582156112c0579182015b828111156112bf5782518255916020019190600101906112a4565b5b5090506112cd91906112d1565b5090565b6112f391905b808211156112ef5760008160009055506001016112d7565b5090565b9056fea165627a7a72305820a9e454e855cd752dd0b36970f1f1a04c34f7110689bceec23de4d0718c348d020029536166654d6174683a206d756c7469706c69636174696f6e206f766572666c6f77a165627a7a72305820684f866b40905e25d1f549a99a301d352176f1e161d76d9e54cc2a761f5646ef0029",
  "source": "pragma solidity ^0.5.8;\n\nimport '../node_modules/@openzeppelin/contracts/math/SafeMath.sol';\nimport './Project.sol';\n\n\ncontract Crowdfunding {\n    using SafeMath for uint256;\n\n    // List of existing projects\n    Project[] private projects;\n\n    // Event that will be emitted whenever a new project is started\n    event ProjectStarted(\n        address contractAddress,\n        address projectStarter,\n        string projectTitle,\n        string projectDesc,\n        uint256 deadline,\n        uint256 goalAmount\n    );\n\n    /** @dev Function to start a new project.\n      * @param title Title of the project to be created\n      * @param description Brief description about the project\n      * @param durationInDays Project deadline in days\n      * @param amountToRaise Project goal in wei\n      */\n    function startProject(\n        string calldata title,\n        string calldata description,\n        uint durationInDays,\n        uint amountToRaise\n    ) external {\n        uint raiseUntil = now.add(durationInDays.mul(1 days));\n        Project newProject = new Project();\n        newProject.init(msg.sender, title, description, raiseUntil, amountToRaise);\n        projects.push(newProject);\n        emit ProjectStarted(\n            address(newProject),\n            msg.sender,\n            title,\n            description,\n            raiseUntil,\n            amountToRaise\n        );\n    }                                                                                                                                   \n\n    /** @dev Function to get all projects' contract addresses.\n      * @return A list of all projects' contract addreses\n      */\n    function returnAllProjects() external view returns(Project[] memory){\n        return projects;\n    }\n}\n",
  "sourcePath": "/Users/bilalakbar/Documents/Thesis/code/smart-contracts/solidity-ethereum/contracts/CrowdFunding.sol",
  "compiler": {
    "name": "solc",
    "version": "0.5.8+commit.23d335f2.Emscripten.clang"
  },
  "schemaVersion": "3.0.13",
  "updatedAt": "2019-10-01T13:52:33.363Z",
  "devdoc": {
    "methods": {
      "returnAllProjects()": {
        "details": "Function to get all projects' contract addresses.",
        "return": "A list of all projects' contract addreses"
      },
      "startProject(string,string,uint256,uint256)": {
        "details": "Function to start a new project.",
        "params": {
          "amountToRaise": "Project goal in wei",
          "description": "Brief description about the project",
          "durationInDays": "Project deadline in days",
          "title": "Title of the project to be created"
        }
      }
    }
  },
  "userdoc": {
    "methods": {}
  }
}